:020000040800F2
:1000000098080020E5010008E72600085F1B0008AB
:10001000E5260008F10C0008192B0008000000007C
:10002000000000000000000000000000D9270008C8
:10003000F30C000800000000E92600080B29000866
:10004000FF010008FF010008FF010008FF01000890
:10005000FF010008FF010008FF010008FF01000880
:10006000FF010008FF010008FF010008FF01000870
:10007000FF010008FF010008FF010008FF01000860
:10008000FF010008FF010008FF010008FF01000850
:10009000FF010008FF010008FF010008FF01000840
:1000A000FF010008FF010008FF010008FF01000830
:1000B000FF010008FF010008FF010008FF01000820
:1000C000FF010008FF010008FF010008FF01000810
:1000D000FF010008FF010008FF010008FF01000800
:1000E000FF010008FF010008FF010008FF010008F0
:1000F000FF010008FF010008FF010008FF010008E0
:10010000FF010008FF010008FF010008FF010008CF
:10011000FF010008FF010008FF010008FF010008BF
:10012000FF010008FF010008FF010008FF010008AF
:1001300000F002F800F047F80AA090E8000C8244B2
:100140008344AAF10107DA4501D100F03CF8AFF28F
:10015000090EBAE80F0013F0010F18BFFB1A43F0A5
:1001600001031847DC420000FC420000103A24BFA3
:1001700078C878C1FAD8520724BF30C830C144BF0C
:1001800004680C607047000000230024002500264E
:10019000103A28BF78C1FBD8520728BF30C148BFEA
:1001A0000B607047642900F07D80002070471FB508
:1001B0009DE8030000F08EFB00F080F91FBD10B534
:1001C00000F0E5F910BD00F048FA1146FFF7EFFF27
:1001D00002F0DEFC00F04CFB03B4FFF7F0FF03BCC1
:1001E00000F0EAFC0948804709480047FEE7FEE7BF
:1001F000FEE7FEE7FEE7FEE7FEE7FEE7FEE7FEE7D7
:1002000004480549054A064B704700006D2900085F
:10021000310100089802002098080020980400206E
:10022000980400200FB4044910B503AA029800F006
:1002300017F910BC5DF814FB8C0100202DE9F0418A
:100240000E460446002020622046E168884730B30D
:10025000252805D0D4E901219047206A401CF2E707
:10026000E168204600278847050018D0A5F1410025
:10027000192802D820354FF4006732462946204617
:100280002760FFF78FFF40B1012804D0F61D26F04C
:1002900007060836D8E7361DD6E72846DAE7206A8B
:1002A000BDE8F0812DE9F04106460024106875296B
:1002B000314616A510D0AFF30080002802DA404284
:1002C00013A507E031688A0701D512A502E04907A6
:1002D00004D511A5012401E0AFF3008000210A221A
:1002E00006F1240709E0B0FBF2FCB0FBF2F302FBDD
:1002F0001C00303078541846491C0028F3D123469E
:100300002A463046BDE8F04100F051B80000000038
:100310002D0000002B0000002000000010B5431C41
:1003200002E010F8011B71B18107FAD14FF00132E0
:1003300002C88C1A8C4314EAC211F9D0C01A0A06FA
:1003400003D0C01E10BDC01A10BD0A0401D0801E0B
:1003500010BD0902FCD0401E10BD4FF0000200B5D8
:10036000134694469646203922BFA0E80C50A0E8D8
:100370000C50B1F12001BFF4F7AF090728BFA0E886
:100380000C5048BF0CC05DF804EB890028BF40F852
:10039000042B08BF704748BF20F8022B11F0804F94
:1003A00018BF00F8012B70477047704770472DE960
:1003B000F0470D4699469246044600F1240801682C
:1003C000880604D5E06921F01001216000E00120D9
:1003D000A84201DD471B00E00027A1697A1902EB62
:1003E0000900081AA0612078C00602D42046AFF3A5
:1003F0000080002608E0D4E901211AF806009047A1
:10040000206A401C761C20624E45F4DB2078C00632
:100410000AD52046AFF3008006E0D4E90121302060
:100420009047206A401C2062381EA7F10107F4DCC7
:1004300007E0D4E9012118F805009047206A401C24
:100440002062281EA5F10105F3DC2046AFF30080F1
:100450002078000602D50220BDE8F0870120FBE7E6
:10046000074B70B50D467B4400F011F80446284652
:1004700000F020F810B14FF0FF3070BD204670BD85
:100480000F27000001694A1C02610878704700B517
:100490008FB0CDE901310021059105497944CDE9BD
:1004A000031011466846FFF7C9FE0FB000BD0000FB
:1004B000E5FFFFFF007B00F08000704710B5424869
:1004C0005421FFF74AFF41485421FFF746FF4048B7
:1004D0005421FFF742FF3F493B483C4A3F4B0860ED
:1004E0003D490A603A491960531C0365481C106570
:1004F000012008653B48344A39A1784400F01CF9D2
:1005000020B9384878440A3800F0BBF937482F4AF8
:1005100035A1784400F010F920B9344878440A38FD
:1005200000F0AFF932482A4A2FA1784400F004F9CC
:1005300020B92F4878440A3800F0A3F94023224814
:10054000DC000021224600F0D4F820B12548784490
:10055000543800F096F91D4822464023002100F04F
:10056000C8F820B121487844543800F08AF9184876
:1005700022461023002100F0BCF8002806D01C48B9
:100580007844BDE81040563800F07BB910BD1048E3
:1005900070B5006D20F001040B4800F043F90B48E2
:1005A00000F040F90A4800F03DF909E0206D20F024
:1005B0000105204600F036F9204600F073F82C467D
:1005C000002CF3D170BD0000380100208C01002008
:1005D000E0010020180000201C0000202000002066
:1005E00072000000363F000077000000223F00004C
:1005F0000E3F00000EB5CDE90001FFF78FFE02901F
:1006000069460120ABBE0EBD08B5694600900220C8
:10061000ABBE08BD1FB58DE8070069460520ABBE1F
:1006200004B010BD1FB58DE80F0069460620ABBEB3
:10063000F6E708B5694600900920ABBE08BD1CB5B9
:10064000CDE9000169460A20ABBE1CBD704708B564
:10065000694600900C20ABBE08BD754600F018F945
:10066000AE4605006946534620F00700854618B09F
:1006700020B5FFF7C5FDBDE820404FF000064FF064
:1006800000074FF000084FF0000B21F00701AC46C7
:10069000ACE8C009ACE8C009ACE8C009ACE8C009E6
:1006A0008D46704770B50446051F00F0F7F80068E6
:1006B000002C14BF446870BD002C18BFAC423CBF76
:1006C00020466468F8D301680A18AA4218BF45603A
:1006D00003D12A6805461144016028684119A142E6
:1006E0001CBF6C6070BD6168696021680844286047
:1006F00070BD70B5C468A50713D0650211D4B2F5FA
:10070000807F09D0B2F5007F06D0B2F5806F08D1A6
:10071000012300F1240106E05D1E6FF07F46B54223
:1007200001D3012070BD0161C361416024F4706197
:100730001143C160002070BD2DE9F0410C46074611
:100740001646104600F06EF82078611C61280AD029
:10075000722802D077283CD102E00125002405E070
:100760000225042402E0082448F2020511F8010BD6
:100770002B2806D0622809D011F8010C74280AD061
:100780000BE045F0030544F00204EFE745F00405F3
:1007900044F00104EAE744F0100438462146FFF72C
:1007A00029FF411C15D00021316171604FF40071A7
:1007B000F560F1617061200704D530460222002106
:1007C00000F0E6F8306D40F0010030653046BDE8DD
:1007D000F0810020FBE72DE9F0410D460646104C64
:1007E000206DC10704D0410804D020F00104F7E7D0
:1007F00022460EE0542000F09CF807000ED0206D39
:1008000047F001010843542120653846FFF7A5FD54
:100810003A4629463046BDE8F0418DE70020D6E74C
:10082000380100202DE9F04704464FF000094FF051
:10083000FF37C568D4E90486A80707D0204600F032
:1008400057F93046FFF7E0FE002802DA3846BDE8E7
:10085000F087280502D54046FFF724FF4C212046AB
:10086000FFF77BFD206D20F0010020654846EEE794
:1008700010B50446AFF300802046BDE81040FFF7F6
:10088000ABBC10B500F07EF9BDE8104000F074B9C3
:10089000004870473402002070470000004870474D
:1008A0003C020020704770477047704738B50446D7
:1008B0000A4600206946AFF30080002808BF38BD13
:1008C00002460099204600F084F9012038BD01203D
:1008D00000F0D3B9F8B5AFF30080054600200C4610
:1008E000102000BF0646A819A0420DD9324669461D
:1008F0000020AFF30080070008BF00F0BEF90098A9
:10090000A04218BF0546C419FFF7C8FF0560074697
:10091000F01D20F007004619284600F053F9B442B4
:1009200008BFF8BDA21B31463868BDE8F84000F0AA
:1009300050B970B50646FFF7B1FF056806F10B0028
:1009400020F00704B4429CBF002070BD2B466A68AB
:10095000BAB11068A04210D304F1080188423CBF2C
:100960005068586007D35168101941601168091B1D
:10097000016058601460101D70BD13465268002A53
:10098000E7D121462846FFF791FF0028DED170BD50
:100990002DE9F041044616460D464769007B800765
:1009A0002ED03846FFF745FE50BB3EB3012E02D095
:1009B000022E25D104E0204600F025F905441DE073
:1009C0003846FFF744FEE168002841F01001E1607D
:1009D00005DA204600F058F80120BDE8F081C9038F
:1009E0000BD56268E16A914200D81146A2691144B0
:1009F0002269891A814200DD08460544002D01DA8A
:100A00000220EAE7E16A6068E268814206D2910367
:100A1000E06203D522F4003141F01002A6690027FC
:100A2000AE4213DCE16A814201D90B4600E0034685
:100A300003EB060C2369ACEB030CAC4506DD8142ED
:100A400001D98C4600E084469C4505D1A76027600B
:100A500042F02000A5620DE0AD1BE669AE1B8142AD
:100A6000A66000D90846C01A281A2060581960608C
:100A700022F0200003490840E060002084F848701C
:100A8000ABE70000BFCFD7FFC16821F4001141F0F0
:100A90008001C16000218160016070472DE9F0474D
:100AA000814614460E464FF0FF383248D5685769E4
:100AB000054209D03846A169FFF7C1FD002811DBC6
:100AC0002C48C0430540E5602B463246494638462F
:100AD000FFF7A0FDA16920F00042B21A11440028DE
:100AE000A16103D02046FFF7CFFF4046BDE8F08765
:100AF00070B504460569C06A6168884200D8084636
:100B0000E16821F42011E160C90312D5A84208D0A0
:100B10002246411B2846FFF7C1FF10B14FF0FF30BE
:100B200070BD0020E562C4E90150E06820F4803027
:100B3000E060002070BD10B50446C06820F02000C1
:100B4000E060A16AA06988420DD02046FFF7D0FF7F
:100B5000E06820F4405040F01000E060A06AA0611E
:100B60002069E062606044F24001E0688843E06030
:100B700010BD000010000200002801D000F01CB8D9
:100B80007047000010B5014602A000F05DF801209A
:100B900010BD000053494752545245443A20526513
:100BA0006469726563743A2063616E2774206F70A4
:100BB000656E3A200000000001491820ABBEFEE738
:100BC0002600020000210160C0E9011070471020DA
:100BD0007047034640688C46002818BF88423CBFD7
:100BE00003464068F8D318681844884207D00CF1CF
:100BF000030020F00700001D411A521A0146081D8B
:100C00000A60FFF74FBD10B50146C268900703D0D8
:100C1000900607D5886A0AE000F03EF801210160DD
:100C2000881E10BD8B69486818440B69C01A91F87A
:100C300048301BB191F84910401A10BD1103FCD582
:100C40000028FADD401E10BD70B505460C460A208E
:100C500000E06D1C00F018F835B128780028F8D1B4
:100C600002E0641C00F010F814B120780028F8D1DC
:100C7000BDE870400A2000F007B810B500F010F889
:100C8000BDE81040FFF778BF08B569468DF8000051
:100C90000320ABBE08BD00000048704734020020AE
:100CA00010B5012805D0002103A0FFF7CDFF0120DA
:100CB00010BD09A1F8E7000053494752544D454D76
:100CC0003A204F7574206F662068656170206D65ED
:100CD0006D6F7279000000003A2048656170206DE8
:100CE000656D6F727920636F7272757074656400E0
:100CF000FEE7704772B6FEE72DE9F04385B00025A8
:100D00002D480095019502950395816941F01001E8
:100D10008161816901F010010491816941F0200134
:100D20008161816901F020010491816941F0040130
:100D30008161816901F004010491816941F0080138
:100D4000816180691D4E00F008004FF4F864049042
:100D500000222146304600F097F9DFF86480012236
:100D60000421404600F090F9DFF858904FF6FF77E5
:100D700000223946484600F087F90220CDE90250AA
:100D80000094012469460194304600F079F804206B
:100D9000CDE900040326CDE902466946404600F04D
:100DA0006FF801AA009782E870006946484600F093
:100DB00067F805B0BDE8F083001002400010014064
:100DC00000080140000C014030B40C4601465007B9
:100DD00000D0012000EBD2005043C5B208784B7818
:100DE000812809D3402B07D3FF2B05D0FF2803D040
:100DF0007F2B0DD2403B0CE00020014604E000BFF9
:100E0000401C04F8011BC0B2A842F9D330BC7047A3
:100E1000413B8138D9B2C0B2C0EB401303EB801024
:100E200001EB400068430C490C2A0BD0102A0ED06D
:100E3000182AEBD1D1F8191048220144204630BCC1
:100E400001F054BCD1F8091018220144F6E7D1F89A
:100E5000111020220144F1E71601002070B504466C
:100E600000F018F90546601C02D0044800780444DC
:100E700000F010F9401BA042FAD370BD0000002022
:100E80002DE9F84FDFF8C891002409F1040A0AF1AE
:100E9000040B23460F270BF1040ED1E00125A540DA
:100EA00006EA0502AA4276D1DFF8A8C14E68A6EB91
:100EB0000C0866452BD00DDC032E34D005DC36B390
:100EC000012E19D0022E2FD11BE0112E16D0122E7A
:100ED0002AD119E0B8F5881F19D006DCB8F5803F93
:100EE00015D0B8F5801F1FD111E0B8F5001F0ED046
:100EF000B8F5041F18D10AE0CB6815E0CB681B1DBC
:100F000012E0CB6808330FE0CB680C330CE08B6841
:100F10002BB1012B4FF0080303D0456104E00423FB
:100F200002E0056100E00023FF2A01D8064601E047
:100F300000F104064FEA840501D9A5F12005D6F891
:100F4000008007FA05FC28EA0C0803FA05F548EAD0
:100F50000508C6F800804D68ED0070D53E4DAE69BD
:100F600046F00106AE61AD6924F0030605F0010507
:100F700000953A4D06EB050CDCF80850A607360F35
:100F800007FA06F825EA0805DFF8D480404503D1C2
:100F90004FF0000825E052E0DFF8C880404502D15C
:100FA0004FF001081DE0DFF8C080404502D14FF04E
:100FB000020816E0DFF8B480404502D14FF0030884
:100FC0000FE0DFF8AC80404502D14FF0040808E0A4
:100FD000DFF8A080404502D14FF0050801E04FF056
:100FE000060808FA06F848EA0508CCF808804D68B3
:100FF000D9F80060ED034D4601D5164300E0964355
:101000002E604D68DAF80060AD03554601D51643F1
:1010100000E096432E604D68DBF80060ED025D460F
:1010200001D5164300E096432E604D68DEF800605F
:10103000AD02754601D5164300E096432E60641C50
:101040000A681646E2407FF429AFBDE8F88F000039
:101050000004014000001110001002400000014097
:1010600000080140000C0140001001400014014044
:1010700000180140001C0140C26821EA02030A4036
:1010800043EA0241016170470AB1016170470904F6
:10109000FBE7000001488068704700000000002066
:1010A0000248816802781144816070470000002086
:1010B000074810B5016841F010010160032000F0FD
:1010C00067F80F2000F006F800F024F8002010BDAB
:1010D0000020024070B50D4D04464FF47A71287817
:1010E000B1FBF0F00A490968B1FBF0F000F070FBC9
:1010F00048B9102C07D200222146501E00F028F8D3
:1011000000206C6070BD012070BD00000000002058
:101110000C0000200C4808B5816941F00101816193
:10112000816901F001010091C16941F08051C16103
:10113000C06900F0805000900448416821F0E061EF
:1011400041F00071416008BD001002400000014004
:10115000F0B40E4B1B680C46C3F30223C3F1070522
:10116000042D00D90425191D072901D2002300E010
:10117000DB1E012606FA05F1491E214099409E40DA
:10118000761E16403143F0BC01F0C7BC0CED00E008
:10119000064900F0070208684FF6FF03184040EACE
:1011A0000220034A10430860704700000CED00E085
:1011B0000000FA052DE9F0470F46050061D0434EC7
:1011C000306800F00700B84209D2306820F007000C
:1011D00038433060306800F00700B84251D12868C9
:1011E0003B4C810712D5400703D5606840F4E060AE
:1011F00060602878000703D5606840F46050606044
:101200006068A96820F0F000084360602878C00793
:1012100028D06868012810D02168022810D08907DA
:1012200000292EDA616821F0030101436160FFF7B4
:1012300031FF804641F288390DE021688903EFE7EC
:101240008901EDE7FFF726FFA0EB0801494502D928
:101250000320BDE8F0876068696800F00C00B0EB1F
:10126000810FEFD1306800F00700B8420BD9306829
:1012700020F0070038433060306800F00700B842C3
:1012800001D00120E5E72878400705D56068E968C6
:1012900020F4E060084360602878000706D56068A5
:1012A000296920F4605040EAC100606000F038F81D
:1012B0006168084AC1F30311515CC84006490860DF
:1012C00006480068FFF706FF0020C2E70020024042
:1012D000001002405C2C00080C00002004000020DC
:1012E0000448054900684968044AC1F30221515C79
:1012F000C84070470C000020001002406C2C000811
:101300000448054900684968044AC1F3C221515C98
:10131000C84070470C000020001002406C2C0008F0
:1013200012A185B00FC98DE80F0014A0144A0068FF
:1013300004905168134801F00C03042B10D0082BC3
:101340000ED1C1F38343C9031DF803000AD55168C8
:1013500004AAC1F34041515C0A4A5043B0FBF1F08A
:1013600005B0704708494843FAE700000203040546
:10137000060708090A0B0C0D0E0F101001020000E1
:101380000010024000127A0000093D002DE9F84FDC
:10139000040070D02078C04DC00749D06868C0F301
:1013A0008100012807D06868C0F38100022809D1B4
:1013B0006868C00306D52868800339D560680028AE
:1013C000E7D035E06068B0F5803F0BD010B1B0F5E4
:1013D000A02F11D0286820F480302860286820F4DD
:1013E000802002E0286840F480302860606890B176
:1013F000FFF750FE06460AE0286840F48020286087
:10140000F0E700BFFFF746FE801B642873D828680A
:101410008003F7D50CE0FFF73DFE064605E000BF70
:10142000FFF738FE801B6428F0D828688003F7D4C3
:1014300020789A4E80074FF001094FF0000839D507
:10144000686810F00C0F07D06868C0F381000228AC
:1014500009D16868C00306D42868800714D52069BC
:10146000012808D110E02069B0B1C6F80090FFF75C
:1014700011FE074605E00AE1FFF70CFEC01B02283B
:10148000C4D828688007F7D52868616920F0F8007B
:1014900040EAC10028600DE0C6F80080FFF7FAFDC1
:1014A000074604E0FFF7F6FDC01B022823D8286892
:1014B0008007F7D4207800072CD57948A169D9B1E5
:1014C000C0F80090FFF7E6FD074604E0FFF7E2FDF5
:1014D000C01B02280FD8686A8007F7D571484FF4FF
:1014E000FA510068B0FBF1F0009000BF0098411E77
:1014F0000091FAD20EE080E0C0F80080FFF7CAFD4C
:10150000074604E0FFF7C6FDC01B022875D8686ACD
:101510008007F7D42078400760D5E8690027C0002D
:1015200008D4E86940F08050E861E869012700F0DC
:10153000805000905C480168C90513D40168834657
:1015400041F480710160FFF7A5FD824606E000BF0F
:10155000FFF7A0FDA0EB0A0064284ED8DBF80000DE
:10156000C005F5D5E06801280AD008B1052813D0D8
:10157000286A20F001002862286A20F0040002E0B6
:10158000286A40F001002862E06841F2883B98B187
:10159000FFF780FD82460BE0286A40F004002862D5
:1015A000EEE700BFFFF776FDA0EB0A0159455AD8D8
:1015B000286A8007F6D50CE0FFF76CFD824605E04F
:1015C000FFF768FDA0EB0A0159454CD8286A80074F
:1015D000F6D41FB1E86920F08050E861E06988B373
:1015E0006968C1F38101022944D00228C6F86080ED
:1015F00004D0FFF74FFD044638E034E0FFF74AFD22
:10160000074604E0FFF746FDC01B02282BD82868D8
:101610008001F7D4206AB0F5803F05D16868A168E1
:1016200020F4003008436860D4E908010843696881
:1016300021F4741108436860C6F86090FFF72AFD32
:10164000044606E025E000BFFFF724FD001B02284A
:1016500009D828688001F7D51BE000BFFFF71AFD05
:10166000001B022802D90320BDE8F88F28688001FA
:10167000F4D40EE00128F7D06868226A00F48031C3
:10168000914204D1616A00F47010884201D00120B7
:10169000EAE70020E8E700000010024000004242B4
:1016A000800442420C0000200070004070B504002D
:1016B00009D0606A002540B125616561A56294F892
:1016C000510040B10CE0012070BD6068B0F5827F30
:1016D000F4D0E561F2E784F85050204600F040F87D
:1016E000022084F851002068016821F04001016067
:1016F000A088218900F4827001F404410843A18983
:1017000001F400610843217C01F002010843217DBE
:1017100001F001010843218B01F400710843217F8E
:1017200001F03801084394F8201001F080010843CB
:10173000218D01F40051084321680860A06904214B
:1017400001EA1040216848602068C16921F4006105
:10175000C1616565012084F85100002070BD000062
:1017600030B585B00024009401940294039400687D
:101770001449884223D11448816941F48051816120
:10178000816901F480510491816941F00401816112
:1017900080690E4D00F004000490A020009002200B
:1017A00001900320039069462846FFF769FB40201B
:1017B000CDE90004694628460294FFF761FB05B0B5
:1017C00030BD000000300140001002400008014020
:1017D00010B5401EB0F1807F01D3012010BD4FF045
:1017E000E02460610F21601701F097F90020A061EB
:1017F00007202061002010BD70B590F83C20012A20
:101800002CD0012480F83C40022280F83D2003685F
:101810005A689D6822F070060A6832435A60104B7D
:1018200002689A420ED00F4B9A420BD0B2F1804F11
:1018300008D00D4B9A4205D00C4B9A4202D00C4B6B
:101840009A4204D1496825F080031943916080F8D9
:101850003D40002180F83C10084670BD022070BD5C
:10186000002C01400034014000040040000800400A
:10187000000C004010B5040003D094F83D0010B1F6
:1018800007E0012010BD002084F83C00204600F055
:101890001FF8022084F83D00211D206801F068F83F
:1018A000012084F8460084F83E0084F83F0084F864
:1018B000400084F8410084F8420084F8430084F832
:1018C000440084F8450084F83D00002010BD00006D
:1018D00008B500680649884208D10648C16941F048
:1018E0001001C161C06900F01000009008BD000047
:1018F000001000400010024090F83D10012901D076
:1019000001207047022180F83D1000680E4988428E
:101910000ED00E4988420BD0B0F1804F08D00C4950
:10192000884205D00B49884202D00B49884204D135
:10193000816801F00701062903D0016841F0010127
:101940000160002070470000002C0140003401407D
:101950000004004000080040000C004001680A6AD2
:1019600041F211131A4207D10A6A9B101A4203D19D
:101970000A6822F001020A60012180F83D1000206F
:10198000704770B50D46040003D094F83D0010B1C7
:1019900007E0012070BD002084F83C00204600F0E4
:1019A0001BF8022084F83D00211D206800F0E0FFB4
:1019B0002068016821F00801016054F8460B0168B5
:1019C00029430160012004F81F09E0752076E076C4
:1019D0002077A075002070BD704770B5040004D05A
:1019E00094F83D00002510B106E0012070BD84F898
:1019F0003C50204600F022F8242084F83D00206866
:101A0000C16821F40051C160204600F0F7FF206852
:101A1000016921F4904101612068416921F02A01A6
:101A200041612068C16841F40051C16025642020F3
:101A300084F83D0084F83E00002070BD30B585B0CC
:101A4000002400940194029403940068144988428D
:101A500024D11448816941F480418161816901F494
:101A600080410491816941F00401816180690E4DDA
:101A700000F0040004904FF40070009002200190E8
:101A80000320039069462846FFF7FAF92815CDE9A7
:101A90000004694628460294FFF7F2F905B030BD0C
:101AA0000038014000100240000801402DE9F843D1
:101AB000044690F83D001F4616460D4620284CD19E
:101AC000C5B1BEB194F83C00012846D0012084F88D
:101AD0003C004FF00008C4F84080212084F83D000D
:101AE000FFF7D8FAA6848146E684A068B0F5805F47
:101AF00003D004E00120BDE8F883206928B12E4618
:101B00005FF0000584F83C800EE00026FAE78021B3
:101B1000204600F0CFFFA0B9AEB116F8010B216846
:101B20004860E08C401EE084E08C4B464FF00002A1
:101B300000970028EBD14FF04001204600F0BAFF9B
:101B400030B10320D7E735F8020BC0F30800E6E711
:101B5000202084F83D000020CDE70220CBE7FEE7FF
:101B60002DE9F04719498146002408884D8821460F
:101B70004543204600F0B2FB00F0ECFC144F4FF45C
:101B8000807A7E15DFF84C801BE0012251463846F2
:101B9000FFF77AFA002231463846FFF775FAC8F89F
:101BA0000090002280213846FFF76EFA0122802142
:101BB0003846FFF769FA012231463846FFF764FAE2
:101BC000641CAC42E1D3BDE8F087000008010020AE
:101BD000001001400C0C0140F0B40A49F0262C2200
:101BE0002A2388714FF4A0752B2440B10D804E80BC
:101BF0000A814B818C81F0BC002000F049BA0E8034
:101C00004D80F5E7080100202DE9F05F5A4D0746A9
:101C100093460E46688900F077FCDFF860914FF438
:101C20008078012241464846FFF72EFA4FF4007AA9
:101C3000002251464846FFF727FA514C380A2060E7
:101C4000002280214846FFF71FFA012280214846E2
:101C5000FFF71AFA012251464846FFF715FA01220A
:101C600041464846FFF710FA002251464846FFF722
:101C70000BFAF8B22060002280214846FFF704FAF0
:101C8000012280214846FFF7FFF9012251464846CC
:101C9000FFF7FAF9A88900F037FC012241464846CF
:101CA000FFF7F2F9002251464846FFF7EDF9300AF6
:101CB0002060002280214846FFF7E6F901228021BA
:101CC0004846FFF7E1F9012251464846FFF7DCF9A3
:101CD000012241464846FFF7D7F9002251464846BF
:101CE000FFF7D2F9F0B22060002280214846FFF7CA
:101CF000CBF9012280214846FFF7C6F9012251465F
:101D00004846FFF7C1F9002241464846FFF7BCF9B3
:101D1000002251464846FFF7B7F928892060002283
:101D200080214846FFF7B0F9012280214846FFF79D
:101D3000ABF9012251464846FFF7A6F90122414678
:101D40004846FFF7A1F9002251464846FFF79CF9A3
:101D5000C4F800B0002280214846FFF795F901221F
:101D600080214846FFF790F951464846BDE8F05FAC
:101D70000122FFF789B9000008010020001001408E
:101D80000C0C014010B53220FFF768F8012100204B
:101D900000F0E6FB3220FFF761F8D32000F0B4FB3F
:101DA00000F038F9994CA08000F034F9A08000F0E0
:101DB00031F94FF6FF7101EA0020A08000F02AF906
:101DC000A1880843A080CF2000F09EFB002000F0F7
:101DD00075FBC12000F072FB302000F06FFBED209E
:101DE00000F092FB642000F069FB032000F066FB2A
:101DF000122000F063FB812000F060FBE82000F07F
:101E000083FB852000F05AFB102000F057FB7A205E
:101E100000F054FBCB2000F077FB392000F04EFBA4
:101E20002C2000F04BFB002000F048FB342000F099
:101E300045FB022000F042FBF72000F065FB20206C
:101E400000F03CFBEA2000F05FFB002000F036FBD6
:101E5000002000F033FBC02000F056FB1B2000F0F8
:101E60002DFBC12000F050FB012000F027FBC52016
:101E700000F04AFB302000F021FB302000F01EFB78
:101E8000C72000F041FBB72000F018FB362000F01F
:101E90003BFB482000F012FB3A2000F035FB5520B8
:101EA00000F00CFBB12000F02FFB002000F006FB3F
:101EB0001A2000F003FBB62000F026FB0A2000F0F9
:101EC000FDFAA22000F0FAFAF22000F01DFB00203B
:101ED00000F0F4FA262000F017FB012000F0EEFAE3
:101EE000E02000F011FB0F2000F0E8FA2A2000F0BB
:101EF000E5FA282000F0E2FA082000F0DFFA0E20D0
:101F000000F0DCFA082000F0D9FA542000F0D6FAEC
:101F1000A92000F0D3FA432000F0D0FA0A2000F004
:101F2000CDFA0F2000F0CAFA002000F0C7FA002016
:101F300000F0C4FA002000F0C1FA002000F0BEFA60
:101F4000E12000F0E1FA002000F0B8FA152000F0DE
:101F5000B5FA172000F0B2FA072000F0AFFA11200E
:101F600000F0ACFA062000F0A9FA2B2000F0A6FA47
:101F7000562000F0A3FA3C2000F0A0FA052000F063
:101F80009DFA102000F09AFA0F2000F097FA3F20F7
:101F900000F094FA3F2000F091FA0F2000F08EFA42
:101FA0002B2000F0B1FA002000F088FA002000F0A9
:101FB00085FA012000F082FA3F2000F07FFA2A2003
:101FC00000F0A2FA002000F079FA002000F076FA82
:101FD000002000F073FAEF2000F070FA112000F0FA
:101FE00093FA7820FEF73AFF292000F08DFA0020BE
:101FF000FFF7F2FD012291020548FFF745F80020A6
:10200000FFF7AEFDBDE8104000F098BD08010020CC
:10201000001001402DE9F0471B4D4FF0883028603B
:102020002E1D3060184F00200C373860DFF85C80C0
:10203000012211024046FFF727F84FF400790022F1
:1020400049464046FFF720F8002240214046FFF76E
:102050001BF8092000F0EEFD301D0068012284B25B
:1020600040214046FFF710F8012249464046FFF75D
:102070000BF84FF03330286030604FF6FF70386057
:102080002046BDE8F0870000000C01400010014030
:102090002DE9F0478E4C0021A279012A07D10828AA
:1020A00005D2DFE800F0161812140C19100E0828DB
:1020B00012D2DFE800F0110406080A0C0E1080218D
:1020C0000AE0402108E0C02106E0202104E0602170
:1020D00002E0A02100E0E02141F008053620294679
:1020E00000F03EFAA8062088618802D5884202D313
:1020F00003E0884201D921806080608900F004FA01
:102100000122DFF8D081170239464046FEF7BCFFB6
:102110004FF40079002249464046FEF7B5FF6E4D68
:1021200000262E60324680214046FEF7ADFF012298
:1021300080214046FEF7A8FF012249464046FEF7AF
:10214000A3FF012239464046FEF79EFF0022494682
:102150004046FEF799FF2E60002280214046FEF7A0
:1021600093FF012280214046FEF78EFF012249465F
:102170004046FEF789FF012239464046FEF784FFBC
:10218000002249464046FEF77FFF2088401E00128D
:102190002860002280214046FEF776FF0122802140
:1021A0004046FEF771FF012249464046FEF76CFFAC
:1021B000012239464046FEF767FF00224946404665
:1021C000FEF762FF2078401EC0B228600022802106
:1021D0004046FEF759FF012280214046FEF754FF9A
:1021E000012249464046FEF74FFFA08900F08CF9D6
:1021F000012239464046FEF747FF00224946404645
:10220000FEF742FF2E60002280214046FEF73CFF91
:10221000012280214046FEF737FF01224946404611
:10222000FEF732FF012239464046FEF72DFF00221D
:1022300049464046FEF728FF2E6000228021404696
:10224000FEF722FF012280214046FEF71DFF0122FA
:1022500049464046FEF718FF012239464046FEF740
:1022600013FF002249464046FEF70EFF6088401EDD
:1022700000122860002280214046FEF705FF01225F
:1022800080214046FEF700FF012249464046FEF706
:10229000FBFE012239464046FEF7F6FE0022494683
:1022A0004046FEF7F1FEA078401EC0B22860002232
:1022B00080214046FEF7E8FE012280214046FEF7DD
:1022C000E3FE49464046BDE8F0470122FEF7DCBE8A
:1022D00008010020001001400C0C01402DE9F047DE
:1022E0003E4F06460D46788900F00EF9DFF8F09073
:1022F0004FF48078012241464846FEF7C5FE4FF470
:10230000007A002251464846FEF7BEFE354C300AA0
:102310002060002280214846FEF7B6FE012280217F
:102320004846FEF7B1FE012251464846FEF7ACFE94
:10233000012241464846FEF7A7FE00225146484684
:10234000FEF7A2FEF0B22060002280214846FEF790
:102350009BFE012280214846FEF796FE012251464F
:102360004846FEF791FEB88900F0CEF801224146BA
:102370004846FEF789FE002251464846FEF784FE95
:10238000280A2060002280214846FEF77DFE0122B7
:1023900080214846FEF778FE012251464846FEF766
:1023A00073FE012241464846FEF76EFE002251466A
:1023B0004846FEF769FEE8B22060002280214846C8
:1023C000FEF762FE012280214846FEF75DFE51467F
:1023D0004846BDE8F0470122FEF756BE080100203E
:1023E000001001400C0C01402DE9FF5F1D460C461A
:1023F0008A46580700D0012000EBD5006908484301
:10240000203A00F0FF09D0B20026DFF89CB002901D
:1024100045E00C2D12D0102D15D0182D41D1029869
:10242000224900EBC00000BF01EB80004FF0000824
:10243000875D38060CD51E4802880DE002981D49BC
:1024400000EB4000F0E71C49029801EB0010EDE7BB
:102450000E9828B91648428821460098FFF7D4FB09
:102460007806070E641CBBF80200A4B2A04218D97B
:10247000A4EB0A00A84209D100985446401C80B23F
:102480000090BBF8001081420BD906E008F1010072
:1024900000F0FF08B8F1080FCBD3761CF6B24E451A
:1024A000B7D3BDE8FF9F000008010020D836000820
:1024B00014000020742C0008E830000870B5104D9E
:1024C0000446012211022846FEF7DEFD6E150022A9
:1024D00031462846FEF7D8FD0A48046000228021D4
:1024E0002846FEF7D1FD012280212846FEF7CCFDCB
:1024F00031462846BDE870400122FEF7C5BD000008
:10250000001001400C0C014070B5104D0446002233
:102510004FF480712846FEF7B7FD6E150022314654
:102520002846FEF7B1FD0A480460002280212846B3
:10253000FEF7AAFD012280212846FEF7A5FD3146BF
:102540002846BDE870400122FEF79EBD0010014004
:102550000C0C014001480089FFF7D6BF080100209C
:1025600070B50C46FFF7D0FF0F4D0122110228462F
:10257000FEF78AFD6E15002231462846FEF784FDDF
:102580000A480460002280212846FEF77DFD0122D2
:1025900080212846FEF778FD31462846BDE8704088
:1025A0000122FEF771BD0000001001400C0C01403B
:1025B00030B585B000200090019002900390124841
:1025C000816941F020018161816901F0200104915C
:1025D000816941F0040181618069012200F00400F9
:1025E0000A4D1402049021462846FEF74DFD0121B4
:1025F0000220CDE90210CDE9004169462846FEF7E8
:102600003FFC05B030BD0000001002400008014052
:10261000104810B50E4901604FF4827141600021ED
:102620008160C1604FF400720161C0E905120822A7
:10263000C0E90721416281620A21C162FFF736F8D1
:10264000002803D0BDE81040FEF754BB10BD0000C9
:1026500000300140240000201CB5002412480094E2
:102660001049019401604721C0E901144FF6FF7140
:102670008461C160FFF7FEF808B1FEF73BFB08215B
:102680000948FFF77EF908B1FEF734FB009469466C
:1026900005480194FFF7B0F8002801D0FEF72AFBA7
:1026A0001CBD0000001000407C0000200C4810B54C
:1026B0000A4901604FF4E1314160002181600C2240
:1026C000C160C0E904128161C161FFF786F9002889
:1026D00003D0BDE81040FEF70DBB10BD003801402F
:1026E000C4000020FEE7FEE7704700002DE9F0413E
:1026F000134F14460D460646002204213846FEF7C5
:10270000C3FC032000F01EF8C5F3074000F01AF8E0
:10271000C5F3072000F016F8E8B200F013F804E063
:10272000FF2000F00FF806F8010B641EA4B2F7D2E8
:102730003846BDE8F04101220421FEF7A5BC0000A7
:102740000008014070B512494FF480550D60114BDF
:102750001C6805E00A68561E0E6001D200200CE0DD
:10276000A268D2439207F5D4E0600D601A6808E0D1
:102770000868431E0B6004D2012000F00DF8C0B2BF
:1027800070BD9068C043C007F2D1D068F7E7000081
:10279000100000202400002010B5014602A0FDF723
:1027A00041FD002010BD00003C3C2D464C415348EB
:1027B0002D4552524F522D3E3E2053504920B5C810
:1027C000B4FDB3ACCAB1216572726F72436F6465B8
:1027D000203D2025640A0000704700002DE9FF4FCE
:1027E0001C4693B013460D468946600700D0012071
:1027F00000EBD401614301F0FF0A0C2C03D0102C34
:1028000001D0182C32D1224669461846FEF7DCFA70
:102810000026DFF860B027E01DF806704FF00008D2
:10282000380602D5BBF8002003E0209828B9BBF891
:10283000022029461398FFF7E7F978066D1C070E6A
:10284000ADB2A5EB0900A04205D113984D46401C3E
:1028500080B2139006E008F1010000F0FF08B8F123
:10286000080FDDD3761CF6B25645D5D317B0BDE8B8
:10287000F08F0000140000202DE9F84F0D460AA942
:10288000044691E8C0088046307800281ED0E81839
:1028900008EB020AA0EB07093278802A18D9AAEBC4
:1028A0000700A04202DAE81985B24446A9450DDBCB
:1028B0003B46324629462046CDF800B0FFF78EFF52
:1028C000E01984B216F8020F0028E5D1BDE8F88FB0
:1028D000AAEB5700A04202DAE81985B24446A9459E
:1028E000F4DB0D2A0CD03B4629462046CDF800B03B
:1028F000FFF77AFD04EB570084B216F8010FE3E707
:10290000E81985B24446761CF4E7FEF7C9BB30B53A
:102910008FB028216846FDF720FD14210AA8FDF795
:102920001CFD01210804CDE90010002402940225B9
:102930000491CDE907504FF4E01009906846FEF786
:1029400025FD08B172B6FEE70F20CDE90A054FF468
:102950008060CDE90C4002210AA80E94FEF72AFC03
:10296000002801D072B6FEE70FB030BD70470000FE
:10297000F0B502681C4B1D4D1D4E1E4F1E4C4FF0F6
:10298000804C984209D0A04207D0604505D0A842AB
:1029900003D0B04201D0B84204D122F0700E4A6890
:1029A00042EA0E02984209D0A04207D0604505D005
:1029B000A84203D0B04201D0B84203D122F44075FE
:1029C000CA682A434D6922F080022A4302608A685D
:1029D000C2620A688262984201D0A04201D10969AC
:1029E000016301214161F0BD002C01400004004061
:1029F00000080040000C00400034014070B504465F
:102A000000680169E26821F44051114301612169C4
:102A1000A0680843616908432168CA6841F20C63F1
:102A20009A430243CA6020684169A26921F4407157
:102A3000114341611E492068884202D1FEF760FCC3
:102A400001E0FEF74DFC00EBC00101EB00126068F5
:102A500064218000B2FBF0F3B3FBF1F36FF01806D2
:102A60007343B2FBF0F5B2FBF0F605EB83053223BE
:102A700003EB0515B5FBF1F5B6FBF1F605F0F00536
:102A800005EB0615B2FBF0F6B2FBF0F0B0FBF1F08F
:102A90006FF01802504306EB800003EB0010B0FB10
:102AA000F1F0216800F00F002844886070BD00003C
:102AB000003801402DE9F041984617460E4604467D
:102AC000069D1DE0681C1BD02DB1FEF7E3FAA0EBBC
:102AD0000800A84214D92068C16821F4D071C160EF
:102AE0002068416921F001014161202084F83D0006
:102AF00084F83E00002084F83C000320BDE8F0810B
:102B00002068006836EA000004D00020B842D9D01E
:102B10000020F3E70120F9E7FEE70907090E002886
:102B200004DB00F1E02080F80014704700F00F0093
:102B300000F1E02080F8141D7047000070B50C4EC5
:102B40000C4D0024641CE4B2212231460948FFF7F1
:102B5000CDFD2878AA2809D01420FEF77FF90A2C89
:102B6000F0D32878AA2801D0012070BD002070BDC4
:102B700000604E001601002013B54FF47A73012255
:102B800069460248FEF792FF00981CBDC400002071
:102B90000EB51D494FF6FF70002408801B480480C5
:102BA000FEF786FAFFF7B3FEFFF702FDFFF730FDF1
:102BB000FFF752FDFFF77AFD15480068016841F004
:102BC00040010160FEF798F8FFF7DCF81025DFF808
:102BD00044804FF4FA762F010FA0FDF723FB11A0DC
:102BE000CDE900051023C822332102943220FFF7DB
:102BF00043FE3046FEF732F90020FEF7B1FF3946BA
:102C00004046FEF739FAE7E71400002016000020DE
:102C10002400002000080140B4AEBFDAD5FDB3A304
:102C200000000000D6D0CEC4D7D6BFE2D5FDB3A3F6
:102C30000000000070B5084C05460020216848627D
:102C40002046FEF759FE2068416AA942FCD3BDE840
:102C500070400148FEF782BE7C00002000000000AA
:102C6000000000000102030406070809000000003C
:102C7000010203040000000000000000000000004A
:102C8000000000003F400000000000000000300095
:102C9000400030004000000009000BC03D000BC0A8
:102CA0003D00090018C024407FE022403180000030
:102CB000180024C01B000D803240018003801C409E
:102CC00027401C800740004010006000000000000A
:102CD000000000000000000000001F802040402095
:102CE0000000402020401F80000000000900060076
:102CF0001F80060009000000040004003F8004005B
:102D0000040000000010006000000000000000004F
:102D1000040004000400040004000000000000405F
:102D20000000000000000000002001C00600380084
:102D3000400000001F802040204020401F800000F5
:102D4000000010403FC000400000000018C02140BB
:102D5000224024401840000010802040244024409D
:102D60001B80000002000D0011003FC00140000068
:102D70003C80244024402440238000001F802440C5
:102D800024403440038000003000200027C0380079
:102D9000200000001B802440244024401B800000B1
:102DA0001C0022C0224022401F80000000000000C2
:102DB0000840000000000000000000000460000067
:102DC00000000000000004000A00110020804040C4
:102DD0000900090009000900090000000000404046
:102DE000208011000A000400180020002340240065
:102DF000180000001F802040274029401F4000008D
:102E0000004007C039000F0001C0004020403FC013
:102E1000244024401B8000001F8020402040204090
:102E20003080000020403FC0204020401F80000034
:102E300020403FC024402E4030C0000020403FC012
:102E400024402E00300000000F001080204022405F
:102E50003380020020403FC0040004003FC02040F7
:102E6000204020403FC02040204000000060202043
:102E700020203FC02000200020403FC024400B0005
:102E800030C0204020403FC020400040004000C0F3
:102E90003FC03C0003C03C003FC0000020403FC09A
:102EA0000C4023003FC020001F80204020402040D5
:102EB0001F80000020403FC0244024001800000074
:102EC0001F802140214020E01FA0000020403FC083
:102ED0002440260019C0004018C02440244022404D
:102EE00031800000300020403FC020403000000012
:102EF00020003F80004000403F80200020003E0036
:102F000001C0070038002000380007C03C0007C09F
:102F100038000000204039C0060039C020400000C1
:102F20002000384007C0384020000000304021C059
:102F30002640384020C00000000000007FE0402014
:102F400040200000000070000C00038000400000E2
:102F50000000402040207FE0000000000000200032
:102F600040002000000000000010001000100010C1
:102F700000100010000000004000000000000000F1
:102F8000000002800540054003C0004020003FC013
:102F9000044004400380000000000380044004401B
:102FA0000640000000000380044024403FC0004071
:102FB000000003800540054003400000000004407D
:102FC0001FC0244024402000000002E005500550AE
:102FD0000650042020403FC00440040003C00040CD
:102FE0000000044027C00040000000000010001056
:102FF000041027E00000000020403FC0014007000F
:1030000004C00440204020403FC000400040000079
:1030100007C0040007C0040003C00000044007C04C
:103020000440040003C0004000000380044004404A
:1030300003800000041007F00450044003800000E7
:10304000000003800440045007F00010044007C053
:103050000240040004000000000006400540054056
:1030600004C00000000004001F8004400040000075
:10307000040007800040044007C00040040007002F
:1030800004C0018006000400060001C0070001C062
:1030900006000000044006C0010006C00440000015
:1030A0000410071004E00180060004000000044042
:1030B00005C00640044000000000000004007BE062
:1030C00040200000000000000000FFF000000000B1
:1030D000000040207BE00400000000004000800071
:1030E0004000200020004000000000000000000020
:1030F00000000000000000000000000000001FCCE5
:10310000000C00000000000000000800300060001B
:103110000800300060000000022003FC1E20022096
:1031200003FC1E200220000000000E1811043FFFC7
:1031300010840C78000000000F0010840F3800C0CD
:10314000077818840078000000780F8410C41124D8
:103150000E9800E400840008080068007000000079
:10316000000000000000000000000000000007E078
:103170001818200440020000000040022004181823
:1031800007E00000000000000240024001800FF054
:1031900001800240024000000080008000800FF8A3
:1031A00000800080008000000001000D000E000083
:1031B000000000000000000000000080008000808F
:1031C00000800080008000800000000C000C0000E7
:1031D0000000000000000000000000060018006071
:1031E0000180060018002000000007F00808100405
:1031F0001004080807F000000000080408041FFC81
:10320000000400040000000000000E0C1014102444
:10321000104411840E0C000000000C18100411045E
:10322000110412880C700000000000E00320042448
:1032300008241FFC0024000000001F9810841104C3
:103240001104108810700000000007F008881104B5
:10325000110418880070000000001C00100010FC11
:1032600013001C001000000000000E3811441084F0
:10327000108411440E38000000000700088C104430
:103280001044088807F00000000000000000030C54
:10329000030C000000000000000000000001010617
:1032A000000000000000000000000080014002203B
:1032B000041008081004000002200220022002204E
:1032C0000220022002200000000010040808041060
:1032D000022001400080000000000E001200100CCF
:1032E000106C10800F00000003E00C1813E414248D
:1032F00017C4082807D000000004003C03C41C4089
:10330000074000E4001C000410041FFC1104110419
:1033100011040E880070000003E00C181004100463
:10332000100410081C10000010041FFC10041004EE
:103330001004080807F0000010041FFC1104110419
:1033400017C410040818000010041FFC1104110019
:1033500017C010000800000003E00C18100410044F
:1033600010441C780040000010041FFC10840080F2
:10337000008010841FFC10040000100410041FFCC7
:1033800010041004000000000003000110011001EF
:103390001FFE10001000000010041FFC1104038029
:1033A0001464181C1004000010041FFC1004000416
:1033B00000040004000C000010041FFC1F0000FCAF
:1033C0001F001FFC1004000010041FFC0C0403006D
:1033D00000E010181FFC100007F00808100410048B
:1033E0001004080807F0000010041FFC108410806F
:1033F000108010800F00000007F00818102410241F
:10340000101C080A07F2000010041FFC1104110030
:1034100011C011300E0C000400000E1C11041084A9
:10342000108410441C3800001800100010041FFC09
:10343000100410001800000010001FF81004000411
:10344000000410041FF8100010001E0011E0001C02
:10345000007013801C0010001FC0103C00E01F0013
:1034600000E0103C1FC000001004180C163401C00E
:1034700001C01634180C100410001C00130400FCCA
:1034800013041C00100000000804101C10641084B9
:1034900013041C04101800000000000000007FFE50
:1034A0004002400240020000000030000C00038097
:1034B0000060001C000300000000400240024002C7
:1034C0007FFE00000000000000000000200040001F
:1034D0004000400020000000000100010001000148
:1034E0000001000100010001000040004000200038
:1034F00000000000000000000000009801240144CA
:103500000144014400FC000410001FFC0088010479
:1035100001040088007000000000007000880104B1
:10352000010401040088000000000070008801040C
:10353000010411081FFC0004000000F801440144CC
:103540000144014400C800000000010401040FFC14
:103550001104110411001800000000D601290129EE
:10356000012901C90106000010041FFC00840100AC
:103570000100010400FC000400000104190419FC0E
:10358000000400040000000000000003000101012D
:10359000190119FE0000000010041FFC0024004067
:1035A00001B4010C010400000000100410041FFC11
:1035B0000004000400000000010401FC01040100FB
:1035C00001FC0104010000FC010401FC0084010075
:1035D0000100010400FC0004000000F801040104E3
:1035E0000104010400F80000010101FF008501044D
:1035F00001040088007000000000007000880104D1
:103600000104010501FF00010104010401FC008423
:103610000104010001800000000000CC012401240D
:10362000012401240198000000000100010007F8B6
:103630000104010400000000010001F8000400047E
:103640000004010801FC0004010001800170000C6D
:10365000001001600180010001F0010C003001C088
:103660000030010C01F0010000000104018C007425
:103670000170018C01040000010101810171000E43
:10368000001801600180010000000184010C013478
:1036900001440184010C0000000000000000000053
:1036A00001003EFC4002400200000000000000005B
:1036B000FFFF0000000000000000400240023EFC4E
:1036C0000100000000000000000060008000800099
:1036D000400040002000200000000000000000002A
:1036E00000000000000000000000000000000000DA
:1036F00000000000000000000000000000000000CA
:1037000000000000000000000000000F80380FFEE5
:10371000380F8038000000000000000000000000AA
:103720000000000000000100000600000C0000384E
:1037300000003100000600000C00003800003000DE
:10374000000000000000000061800067F807F980B9
:103750000061800061800061800061800067F8077F
:10376000F98000618000000000000000000001C03E
:10377000E003E0F00630080418081FFFFE040E08FE
:103780000787F00381E000000000000001F0000660
:103790000C00040408060C7001F9C0000E00003B88
:1037A000E000EC18070808040C180003E000000013
:1037B0000001E00007F003F818041C0804170807CC
:1037C000E1D003C0E00023B0003C08002008000066
:1037D0001000000000000001000031000032000075
:1037E0001C000000000000000000000000000000BD
:1037F00000000000000000000000000000000000C9
:1038000000000000000000007F0001FFC00780F002
:103810000C0018100004200002000000000000202E
:1038200000021000040C00180780F001FFC0007FA8
:103830000000000000000000000000000000000088
:10384000000000004200006600006600003C00002E
:10385000180003FFC0001800003C0000660000666E
:1038600000004200000000000800000800000800FE
:1038700000080000080001FFC00008000008000068
:10388000080000080000080000000000000100001F
:103890003100003200001C000000000000000000A9
:1038A0000000000000000000000000000000000018
:1038B00008000008000008000008000008000008D8
:1038C00000000800000800000800000800000000D8
:1038D0000000000000000000380000380000380040
:1038E00000000000000000000000000000000000D8
:1038F0000000000000000000000600001C00007036
:10390000000180000E0000380000C0000700001C0D
:103910000000300000000000000000007F8001FF78
:10392000E003807006001804000804000806001870
:1039300003807001FFE0007F8000000000000000B5
:10394000000001000801000801000803FFF807FF5C
:10395000F800000800000800000800000000000057
:1039600000000001C03802C0580400980401180487
:103970000218040418061C1803F81801E0F80000E7
:103980000000000000000001C0E003C0F0040008D7
:1039900004080804080806180803F41801E7F000F2
:1039A00001E0000000000000000000000300000D26
:1039B0000000110000610000810803010807FFF802
:1039C0000FFFF800010800010800000000000000DF
:1039D00000E007FCD00608080610080610080610CC
:1039E00008061838060FF00607C0000000000000A7
:1039F000000000003F8001FFE0038430020818044B
:103A00001008041008041008071810030FF000072E
:103A1000C000000000000000000003C0000700001C
:103A20000600000600F80607F806180006E0000782
:103A3000000006000000000000000001E1E003F7C4
:103A4000F0063410041808041808040C08040C08C4
:103A500006161803F3F001C1E000000000000000AA
:103A6000F80003FC300306380402080402080402CC
:103A7000080404100308F001FFC0007F00000000EC
:103A80000000000000000000000000000000000036
:103A9000703800703800703800000000000000002E
:103AA0000000000000000000000000000000000016
:103AB00000000000301A00301C0000000000000070
:103AC00000000000000000000000000000000008EE
:103AD000000014000022000041000080800100402E
:103AE0000200200400100800080000000000000090
:103AF0002100002100002100002100002100002100
:103B00000000210000210000210000210000000031
:103B1000000000000000080008040010020020015E
:103B200000400080800041000022000014000008D6
:103B30000000000000000003C00004C000040000FA
:103B4000080038080F380808380810000C30000743
:103B5000E00003C000000000000000003F8000FF04
:103B6000E0038070020F1006708804C08804830888
:103B7000047F8802C09003012000FE40000008007E
:103B800000180001F8003E0801C20007020007E229
:103B90000000FE00001FC80001F800003800000807
:103BA00004000807FFF807FFF804080804080804E1
:103BB000080804080806180803F41801E7F00001D3
:103BC000E0000000000000003F8001FFE003807083
:103BD000020018040008040008040008040010068D
:103BE00000200780C000000004000807FFF807FF5E
:103BF000F80400080400080400080400180200107B
:103C000003807001FFE0007F8000000004000807CF
:103C1000FFF807FFF8040808040808040808040867
:103C200008043E08040008060018010060000000B7
:103C300004000807FFF807FFF80408080408000458
:103C40000800040800043E00060000060000018091
:103C500000000000000000003F8001FFE0038070D2
:103C60000600180400080402080402080203F00712
:103C700083F000020000020004000807FFF807FFBD
:103C8000F804080800080000080000080000080008
:103C900004080807FFF807FFF80400080000000008
:103CA000000004000804000804000807FFF807FFEC
:103CB000F8040008040008040008000000000000E8
:103CC00000000000000600000700000104000104DD
:103CD000000104000307FFFE07FFFC0400000400CE
:103CE0000004000004000807FFF807FFF8040C08B0
:103CF000001800003E0004C7800503C80600F80451
:103D0000003804001800000804000807FFF807FF47
:103D1000F80400080000080000080000080000087F
:103D20000000080000180000600000000400080700
:103D3000FFF807800807FC00007FC00003F80007B9
:103D4000C000780007800807FFF807FFF8040008A4
:103D500004000807FFF807000803C00000E00000A7
:103D60003800001E000007000001C00400F007FF3B
:103D7000F8040000000000007F8001FFE003807075
:103D800006001804000804000806001803003001AB
:103D9000FFE0007F8000000004000807FFF807FF35
:103DA000F8040408040400040400040400040400EB
:103DB000060C0003F80001F0000000000000000005
:103DC0007F8001FFE0038070060088040088040003
:103DD000C806003C03003E01FFE6007F84000000AF
:103DE00004000807FFF807FFF804080804080004A7
:103DF0000C00040F00040BC00610F003F03801E0C3
:103E00000800000800000001E0F803F03006301060
:103E1000041808041808040C08040C080206180208
:103E200007F00781E00000000180000600000400A8
:103E30000004000004000807FFF807FFF80400086A
:103E400004000004000006000001800004000007D8
:103E5000FFE007FFF0040018000008000008000061
:103E60000800000800000804001007FFE00400003C
:103E700004000006000007E00007FE00041FE00049
:103E800001F80000380001E0043E0007C000060011
:103E90000004000004000007E00007FFC0041FF852
:103EA0000007C007F80007FF80043FF80007C004C0
:103EB000F8000700000400000000000400080600ED
:103EC0001807C07805F1C8003E00001F800463E8B1
:103ED0000780F8060018040008000000040000062F
:103EE000000007800007E008047C08001FF80007B6
:103EF000F800180804E008070000060000040000AD
:103F00000000000100080600380400F80403E8047B
:103F10000F08047C0805F00807C008070018040013
:103F20006000000000000000000000000000000031
:103F30000000003FFFFE20000220000220000220BF
:103F40000002200002000000000000000000080045
:103F50000007000000C0000038000006000001C09B
:103F600000003000000E0000010000000000000012
:103F70000000200002200002200002200002200099
:103F8000023FFFFE000000000000000000000000F3
:103F900000000000000000000008000010000030D9
:103FA00000002000003000001000000800000000A9
:103FB00000000000000001000001000001000001FD
:103FC00000000100000100000100000100000100EC
:103FD00000010000010000010000000000000000DE
:103FE0000020000020000010000010000000000071
:103FF00000000000000000000000000000000000C1
:1040000000F00019F8001B18002208002608002400
:1040100008002410003FF8001FF8000008000018F6
:1040200000000004000007FFF80FFFF00018180060
:104030001008002008002008003018001FF0000FB2
:10404000C00000000000000007C0001FF000183092
:10405000002008002008002008003C08001C100078
:1040600000600000000000000000000007C0001F0A
:10407000F000381800200800200800200804101064
:1040800007FFF80FFFF00000100000000000000024
:1040900000000007C0001FF00012300022180022AC
:1040A00008002208003208001E10000E2000000048
:1040B00000000000200000200800200801FFF80395
:1040C000FFF8062008042008042008072000030049
:1040D0000000000000000000000E000E6E001FF344
:1040E0000031B10020B10020B1003191001F130058
:1040F0002E1E00200E00300000000004000807FF04
:10410000F80FFFF800100800200000200000200831
:10411000003FF8001FF80000080000000000000049
:104120000000002008002008002008063FF8063F95
:10413000F80000080000080000080000000000006F
:104140000000000000000000030000030020010048
:104150002001002003063FFE063FFC000000000097
:104160000000000000000004000807FFF80FFFF83F
:10417000000188000300002FC00038F8002038003C
:1041800020080000080000000000000000000400FB
:104190000804000804000807FFF80FFFF8000008F3
:1041A00000000800000800000000000000200800D7
:1041B0003FF8003FF8001008002000003FF8003FE3
:1041C000F8001008002000003FF8003FF800000849
:1041D000000000002008003FF8003FF80010080031
:1041E0001000002000002008003FF8001FF8000029
:1041F000080000000000000007C0000FF0001830A9
:1042000000300800200800200800300800183000A6
:104210000FF00007C0000000000000002001003F78
:10422000FF003FFF001011002009002008002008B7
:10423000003038001FF0000FC00000000000000038
:1042400007C0001FF00038180020080020080020D8
:1042500009001011001FFF003FFF000001000000D7
:10426000002008002008002008003FF8003FF80068
:10427000080800100800200800200000300000306E
:1042800000000000000000000000000C78001E1874
:10429000003308002308002108002188002198002D
:1042A00030F0003860000000000000002000002016
:1042B0000000200000FFF003FFF8002008002008A5
:1042C0000020080000300000000000000000000096
:1042D0002000003FF0007FF80000180000080000F8
:1042E00008002010003FF8007FF0000010000000E0
:1042F000000000002000003000003C00003F800073
:1043000023F0000078000070002380003C000030A3
:1043100000002000002000003C00003FE00023F8E7
:104320000000E0002700003E00003FE00021F80010
:1043300001E0003E000020000000000020080020F6
:1043400008003838003E680027800003C8002CF8B9
:10435000003838002018002008000000000000008D
:104360002000003003003C01003F830023EC0000EC
:1043700070002380003C00002000002000000000AE
:104380000000000000000038080020380020F8007D
:1043900023E8002F88003E0800380800201800009D
:1043A000700000000000000000000000000000009D
:1043B0000000000008000014001FF7FC3000062079
:1043C00000020000000000000000000000000000EB
:1043D00000000000000000000000FFFFFF000000E0
:1043E00000000000000000000000000000000000CD
:1043F00000002000023000061FF7FC001400000837
:1044000000000000000000000000000000000000AC
:104410000000001800006000004000004000002084
:1044200000001000000800000400000400000C0060
:10443000001000003A7474003A7474003A74740006
:104440006044000800000020240000006C01000807
:10445000844400082400002074080000880100083B
:104460000100000010000000000000000024F40023
:1044700000A000000000FFFF00000000000000009E
:044480000000000038
:0400000508000131BD
:00000001FF
